{
    "_format": "hh-sol-artifact-1",
    "contractName": "MintExample",
    "sourceName": "contracts/Greeter.sol",
    "abi": [
        {
            "inputs": [
                {
                    "internalType": "string",
                    "name": "name",
                    "type": "string"
                },
                {
                    "internalType": "string",
                    "name": "symbol",
                    "type": "string"
                }
            ],
            "stateMutability": "nonpayable",
            "type": "constructor"
        },
        {
            "anonymous": false,
            "inputs": [
                {
                    "indexed": true,
                    "internalType": "address",
                    "name": "owner",
                    "type": "address"
                },
                {
                    "indexed": true,
                    "internalType": "address",
                    "name": "approved",
                    "type": "address"
                },
                {
                    "indexed": true,
                    "internalType": "uint256",
                    "name": "tokenId",
                    "type": "uint256"
                }
            ],
            "name": "Approval",
            "type": "event"
        },
        {
            "anonymous": false,
            "inputs": [
                {
                    "indexed": true,
                    "internalType": "address",
                    "name": "owner",
                    "type": "address"
                },
                {
                    "indexed": true,
                    "internalType": "address",
                    "name": "operator",
                    "type": "address"
                },
                {
                    "indexed": false,
                    "internalType": "bool",
                    "name": "approved",
                    "type": "bool"
                }
            ],
            "name": "ApprovalForAll",
            "type": "event"
        },
        {
            "anonymous": false,
            "inputs": [
                {
                    "indexed": true,
                    "internalType": "address",
                    "name": "previousOwner",
                    "type": "address"
                },
                {
                    "indexed": true,
                    "internalType": "address",
                    "name": "newOwner",
                    "type": "address"
                }
            ],
            "name": "OwnershipTransferred",
            "type": "event"
        },
        {
            "anonymous": false,
            "inputs": [
                {
                    "indexed": true,
                    "internalType": "address",
                    "name": "from",
                    "type": "address"
                },
                {
                    "indexed": true,
                    "internalType": "address",
                    "name": "to",
                    "type": "address"
                },
                {
                    "indexed": true,
                    "internalType": "uint256",
                    "name": "tokenId",
                    "type": "uint256"
                }
            ],
            "name": "Transfer",
            "type": "event"
        },
        {
            "inputs": [
                {
                    "internalType": "address",
                    "name": "to",
                    "type": "address"
                },
                {
                    "internalType": "uint256",
                    "name": "tokenId",
                    "type": "uint256"
                }
            ],
            "name": "approve",
            "outputs": [],
            "stateMutability": "nonpayable",
            "type": "function"
        },
        {
            "inputs": [
                {
                    "internalType": "address",
                    "name": "owner",
                    "type": "address"
                }
            ],
            "name": "balanceOf",
            "outputs": [
                {
                    "internalType": "uint256",
                    "name": "",
                    "type": "uint256"
                }
            ],
            "stateMutability": "view",
            "type": "function"
        },
        {
            "inputs": [
                {
                    "internalType": "address",
                    "name": "",
                    "type": "address"
                }
            ],
            "name": "balances",
            "outputs": [
                {
                    "internalType": "uint256",
                    "name": "",
                    "type": "uint256"
                }
            ],
            "stateMutability": "view",
            "type": "function"
        },
        {
            "inputs": [
                {
                    "internalType": "uint256",
                    "name": "tokenId",
                    "type": "uint256"
                }
            ],
            "name": "getApproved",
            "outputs": [
                {
                    "internalType": "address",
                    "name": "",
                    "type": "address"
                }
            ],
            "stateMutability": "view",
            "type": "function"
        },
        {
            "inputs": [
                {
                    "internalType": "address",
                    "name": "owner",
                    "type": "address"
                },
                {
                    "internalType": "address",
                    "name": "operator",
                    "type": "address"
                }
            ],
            "name": "isApprovedForAll",
            "outputs": [
                {
                    "internalType": "bool",
                    "name": "",
                    "type": "bool"
                }
            ],
            "stateMutability": "view",
            "type": "function"
        },
        {
            "inputs": [
                {
                    "internalType": "uint256",
                    "name": "numberOfMints",
                    "type": "uint256"
                }
            ],
            "name": "mint",
            "outputs": [],
            "stateMutability": "payable",
            "type": "function"
        },
        {
            "inputs": [],
            "name": "name",
            "outputs": [
                {
                    "internalType": "string",
                    "name": "",
                    "type": "string"
                }
            ],
            "stateMutability": "view",
            "type": "function"
        },
        {
            "inputs": [],
            "name": "owner",
            "outputs": [
                {
                    "internalType": "address",
                    "name": "",
                    "type": "address"
                }
            ],
            "stateMutability": "view",
            "type": "function"
        },
        {
            "inputs": [
                {
                    "internalType": "uint256",
                    "name": "tokenId",
                    "type": "uint256"
                }
            ],
            "name": "ownerOf",
            "outputs": [
                {
                    "internalType": "address",
                    "name": "",
                    "type": "address"
                }
            ],
            "stateMutability": "view",
            "type": "function"
        },
        {
            "inputs": [],
            "name": "renounceOwnership",
            "outputs": [],
            "stateMutability": "nonpayable",
            "type": "function"
        },
        {
            "inputs": [
                {
                    "internalType": "address",
                    "name": "from",
                    "type": "address"
                },
                {
                    "internalType": "address",
                    "name": "to",
                    "type": "address"
                },
                {
                    "internalType": "uint256",
                    "name": "tokenId",
                    "type": "uint256"
                }
            ],
            "name": "safeTransferFrom",
            "outputs": [],
            "stateMutability": "nonpayable",
            "type": "function"
        },
        {
            "inputs": [
                {
                    "internalType": "address",
                    "name": "from",
                    "type": "address"
                },
                {
                    "internalType": "address",
                    "name": "to",
                    "type": "address"
                },
                {
                    "internalType": "uint256",
                    "name": "tokenId",
                    "type": "uint256"
                },
                {
                    "internalType": "bytes",
                    "name": "_data",
                    "type": "bytes"
                }
            ],
            "name": "safeTransferFrom",
            "outputs": [],
            "stateMutability": "nonpayable",
            "type": "function"
        },
        {
            "inputs": [
                {
                    "internalType": "address",
                    "name": "operator",
                    "type": "address"
                },
                {
                    "internalType": "bool",
                    "name": "approved",
                    "type": "bool"
                }
            ],
            "name": "setApprovalForAll",
            "outputs": [],
            "stateMutability": "nonpayable",
            "type": "function"
        },
        {
            "inputs": [
                {
                    "internalType": "bytes4",
                    "name": "interfaceId",
                    "type": "bytes4"
                }
            ],
            "name": "supportsInterface",
            "outputs": [
                {
                    "internalType": "bool",
                    "name": "",
                    "type": "bool"
                }
            ],
            "stateMutability": "view",
            "type": "function"
        },
        {
            "inputs": [],
            "name": "symbol",
            "outputs": [
                {
                    "internalType": "string",
                    "name": "",
                    "type": "string"
                }
            ],
            "stateMutability": "view",
            "type": "function"
        },
        {
            "inputs": [
                {
                    "internalType": "uint256",
                    "name": "index",
                    "type": "uint256"
                }
            ],
            "name": "tokenByIndex",
            "outputs": [
                {
                    "internalType": "uint256",
                    "name": "",
                    "type": "uint256"
                }
            ],
            "stateMutability": "view",
            "type": "function"
        },
        {
            "inputs": [
                {
                    "internalType": "address",
                    "name": "owner",
                    "type": "address"
                },
                {
                    "internalType": "uint256",
                    "name": "index",
                    "type": "uint256"
                }
            ],
            "name": "tokenOfOwnerByIndex",
            "outputs": [
                {
                    "internalType": "uint256",
                    "name": "",
                    "type": "uint256"
                }
            ],
            "stateMutability": "view",
            "type": "function"
        },
        {
            "inputs": [
                {
                    "internalType": "uint256",
                    "name": "tokenId",
                    "type": "uint256"
                }
            ],
            "name": "tokenURI",
            "outputs": [
                {
                    "internalType": "string",
                    "name": "",
                    "type": "string"
                }
            ],
            "stateMutability": "view",
            "type": "function"
        },
        {
            "inputs": [],
            "name": "totalSupply",
            "outputs": [
                {
                    "internalType": "uint256",
                    "name": "",
                    "type": "uint256"
                }
            ],
            "stateMutability": "view",
            "type": "function"
        },
        {
            "inputs": [
                {
                    "internalType": "address",
                    "name": "from",
                    "type": "address"
                },
                {
                    "internalType": "address",
                    "name": "to",
                    "type": "address"
                },
                {
                    "internalType": "uint256",
                    "name": "tokenId",
                    "type": "uint256"
                }
            ],
            "name": "transferFrom",
            "outputs": [],
            "stateMutability": "nonpayable",
            "type": "function"
        },
        {
            "inputs": [
                {
                    "internalType": "address",
                    "name": "newOwner",
                    "type": "address"
                }
            ],
            "name": "transferOwnership",
            "outputs": [],
            "stateMutability": "nonpayable",
            "type": "function"
        }
    ],
    "bytecode": "0x60806040523480156200001157600080fd5b506040516200393d3803806200393d833981810160405281019062000037919062000285565b818181600090805190602001906200005192919062000163565b5080600190805190602001906200006a92919062000163565b5050506200008d620000816200009560201b60201c565b6200009d60201b60201c565b505062000468565b600033905090565b6000600a60009054906101000a900473ffffffffffffffffffffffffffffffffffffffff16905081600a60006101000a81548173ffffffffffffffffffffffffffffffffffffffff021916908373ffffffffffffffffffffffffffffffffffffffff1602179055508173ffffffffffffffffffffffffffffffffffffffff168173ffffffffffffffffffffffffffffffffffffffff167f8be0079c531659141344cd1fd0a4f28419497f9722a3daafe3b4186f6b6457e060405160405180910390a35050565b82805462000171906200038d565b90600052602060002090601f016020900481019282620001955760008555620001e1565b82601f10620001b057805160ff1916838001178555620001e1565b82800160010185558215620001e1579182015b82811115620001e0578251825591602001919060010190620001c3565b5b509050620001f09190620001f4565b5090565b5b808211156200020f576000816000905550600101620001f5565b5090565b60006200022a620002248462000321565b620002f8565b9050828152602081018484840111156200024357600080fd5b6200025084828562000357565b509392505050565b600082601f8301126200026a57600080fd5b81516200027c84826020860162000213565b91505092915050565b600080604083850312156200029957600080fd5b600083015167ffffffffffffffff811115620002b457600080fd5b620002c28582860162000258565b925050602083015167ffffffffffffffff811115620002e057600080fd5b620002ee8582860162000258565b9150509250929050565b60006200030462000317565b9050620003128282620003c3565b919050565b6000604051905090565b600067ffffffffffffffff8211156200033f576200033e62000428565b5b6200034a8262000457565b9050602081019050919050565b60005b83811015620003775780820151818401526020810190506200035a565b8381111562000387576000848401525b50505050565b60006002820490506001821680620003a657607f821691505b60208210811415620003bd57620003bc620003f9565b5b50919050565b620003ce8262000457565b810181811067ffffffffffffffff82111715620003f057620003ef62000428565b5b80604052505050565b7f4e487b7100000000000000000000000000000000000000000000000000000000600052602260045260246000fd5b7f4e487b7100000000000000000000000000000000000000000000000000000000600052604160045260246000fd5b6000601f19601f8301169050919050565b6134c580620004786000396000f3fe60806040526004361061012a5760003560e01c80636352211e116100ab578063a0712d681161006f578063a0712d6814610418578063a22cb46514610434578063b88d4fde1461045d578063c87b56dd14610486578063e985e9c5146104c3578063f2fde38b146105005761012a565b80636352211e1461033157806370a082311461036e578063715018a6146103ab5780638da5cb5b146103c257806395d89b41146103ed5761012a565b806323b872dd116100f257806323b872dd1461022857806327e235e3146102515780632f745c591461028e57806342842e0e146102cb5780634f6ccce7146102f45761012a565b806301ffc9a71461012f57806306fdde031461016c578063081812fc14610197578063095ea7b3146101d457806318160ddd146101fd575b600080fd5b34801561013b57600080fd5b50610156600480360381019061015191906124a5565b610529565b60405161016391906128f1565b60405180910390f35b34801561017857600080fd5b506101816105a3565b60405161018e919061290c565b60405180910390f35b3480156101a357600080fd5b506101be60048036038101906101b991906124f7565b610635565b6040516101cb919061288a565b60405180910390f35b3480156101e057600080fd5b506101fb60048036038101906101f69190612469565b6106ba565b005b34801561020957600080fd5b506102126107d2565b60405161021f9190612b6e565b60405180910390f35b34801561023457600080fd5b5061024f600480360381019061024a9190612363565b6107df565b005b34801561025d57600080fd5b50610278600480360381019061027391906122fe565b61083f565b6040516102859190612b6e565b60405180910390f35b34801561029a57600080fd5b506102b560048036038101906102b09190612469565b610857565b6040516102c29190612b6e565b60405180910390f35b3480156102d757600080fd5b506102f260048036038101906102ed9190612363565b6108fc565b005b34801561030057600080fd5b5061031b600480360381019061031691906124f7565b61091c565b6040516103289190612b6e565b60405180910390f35b34801561033d57600080fd5b50610358600480360381019061035391906124f7565b6109b3565b604051610365919061288a565b60405180910390f35b34801561037a57600080fd5b50610395600480360381019061039091906122fe565b610a65565b6040516103a29190612b6e565b60405180910390f35b3480156103b757600080fd5b506103c0610b1d565b005b3480156103ce57600080fd5b506103d7610ba5565b6040516103e4919061288a565b60405180910390f35b3480156103f957600080fd5b50610402610bcf565b60405161040f919061290c565b60405180910390f35b610432600480360381019061042d91906124f7565b610c61565b005b34801561044057600080fd5b5061045b6004803603810190610456919061242d565b610cfa565b005b34801561046957600080fd5b50610484600480360381019061047f91906123b2565b610d10565b005b34801561049257600080fd5b506104ad60048036038101906104a891906124f7565b610d72565b6040516104ba919061290c565b60405180910390f35b3480156104cf57600080fd5b506104ea60048036038101906104e59190612327565b610e19565b6040516104f791906128f1565b60405180910390f35b34801561050c57600080fd5b50610527600480360381019061052291906122fe565b610ead565b005b60007f780e9d63000000000000000000000000000000000000000000000000000000007bffffffffffffffffffffffffffffffffffffffffffffffffffffffff1916827bffffffffffffffffffffffffffffffffffffffffffffffffffffffff1916148061059c575061059b82610fa5565b5b9050919050565b6060600080546105b290612d93565b80601f01602080910402602001604051908101604052809291908181526020018280546105de90612d93565b801561062b5780601f106106005761010080835404028352916020019161062b565b820191906000526020600020905b81548152906001019060200180831161060e57829003601f168201915b5050505050905090565b600061064082611087565b61067f576040517f08c379a000000000000000000000000000000000000000000000000000000000815260040161067690612a8e565b60405180910390fd5b6004600083815260200190815260200160002060009054906101000a900473ffffffffffffffffffffffffffffffffffffffff169050919050565b60006106c5826109b3565b90508073ffffffffffffffffffffffffffffffffffffffff168373ffffffffffffffffffffffffffffffffffffffff161415610736576040517f08c379a000000000000000000000000000000000000000000000000000000000815260040161072d90612b0e565b60405180910390fd5b8073ffffffffffffffffffffffffffffffffffffffff166107556110f3565b73ffffffffffffffffffffffffffffffffffffffff16148061078457506107838161077e6110f3565b610e19565b5b6107c3576040517f08c379a00000000000000000000000000000000000000000000000000000000081526004016107ba90612a0e565b60405180910390fd5b6107cd83836110fb565b505050565b6000600880549050905090565b6107f06107ea6110f3565b826111b4565b61082f576040517f08c379a000000000000000000000000000000000000000000000000000000000815260040161082690612b2e565b60405180910390fd5b61083a838383611292565b505050565b600b6020528060005260406000206000915090505481565b600061086283610a65565b82106108a3576040517f08c379a000000000000000000000000000000000000000000000000000000000815260040161089a9061292e565b60405180910390fd5b600660008473ffffffffffffffffffffffffffffffffffffffff1673ffffffffffffffffffffffffffffffffffffffff168152602001908152602001600020600083815260200190815260200160002054905092915050565b61091783838360405180602001604052806000815250610d10565b505050565b60006109266107d2565b8210610967576040517f08c379a000000000000000000000000000000000000000000000000000000000815260040161095e90612b4e565b60405180910390fd5b600882815481106109a1577f4e487b7100000000000000000000000000000000000000000000000000000000600052603260045260246000fd5b90600052602060002001549050919050565b6000806002600084815260200190815260200160002060009054906101000a900473ffffffffffffffffffffffffffffffffffffffff169050600073ffffffffffffffffffffffffffffffffffffffff168173ffffffffffffffffffffffffffffffffffffffff161415610a5c576040517f08c379a0000000000000000000000000000000000000000000000000000000008152600401610a5390612a4e565b60405180910390fd5b80915050919050565b60008073ffffffffffffffffffffffffffffffffffffffff168273ffffffffffffffffffffffffffffffffffffffff161415610ad6576040517f08c379a0000000000000000000000000000000000000000000000000000000008152600401610acd90612a2e565b60405180910390fd5b600360008373ffffffffffffffffffffffffffffffffffffffff1673ffffffffffffffffffffffffffffffffffffffff168152602001908152602001600020549050919050565b610b256110f3565b73ffffffffffffffffffffffffffffffffffffffff16610b43610ba5565b73ffffffffffffffffffffffffffffffffffffffff1614610b99576040517f08c379a0000000000000000000000000000000000000000000000000000000008152600401610b9090612aae565b60405180910390fd5b610ba360006114ee565b565b6000600a60009054906101000a900473ffffffffffffffffffffffffffffffffffffffff16905090565b606060018054610bde90612d93565b80601f0160208091040260200160405190810160405280929190818152602001828054610c0a90612d93565b8015610c575780601f10610c2c57610100808354040283529160200191610c57565b820191906000526020600020905b815481529060010190602001808311610c3a57829003601f168201915b5050505050905090565b6000610c6b6107d2565b905060005b82811015610cf557610c8d338284610c889190612c22565b6115b4565b600b60003373ffffffffffffffffffffffffffffffffffffffff1673ffffffffffffffffffffffffffffffffffffffff1681526020019081526020016000206000815480929190610cdd90612df6565b91905055508080610ced90612df6565b915050610c70565b505050565b610d0c610d056110f3565b83836115d2565b5050565b610d21610d1b6110f3565b836111b4565b610d60576040517f08c379a0000000000000000000000000000000000000000000000000000000008152600401610d5790612b2e565b60405180910390fd5b610d6c8484848461173f565b50505050565b6060610d7d82611087565b610dbc576040517f08c379a0000000000000000000000000000000000000000000000000000000008152600401610db390612aee565b60405180910390fd5b6000610dc661179b565b90506000815111610de65760405180602001604052806000815250610e11565b80610df0846117b2565b604051602001610e01929190612866565b6040516020818303038152906040525b915050919050565b6000600560008473ffffffffffffffffffffffffffffffffffffffff1673ffffffffffffffffffffffffffffffffffffffff16815260200190815260200160002060008373ffffffffffffffffffffffffffffffffffffffff1673ffffffffffffffffffffffffffffffffffffffff16815260200190815260200160002060009054906101000a900460ff16905092915050565b610eb56110f3565b73ffffffffffffffffffffffffffffffffffffffff16610ed3610ba5565b73ffffffffffffffffffffffffffffffffffffffff1614610f29576040517f08c379a0000000000000000000000000000000000000000000000000000000008152600401610f2090612aae565b60405180910390fd5b600073ffffffffffffffffffffffffffffffffffffffff168173ffffffffffffffffffffffffffffffffffffffff161415610f99576040517f08c379a0000000000000000000000000000000000000000000000000000000008152600401610f909061296e565b60405180910390fd5b610fa2816114ee565b50565b60007f80ac58cd000000000000000000000000000000000000000000000000000000007bffffffffffffffffffffffffffffffffffffffffffffffffffffffff1916827bffffffffffffffffffffffffffffffffffffffffffffffffffffffff1916148061107057507f5b5e139f000000000000000000000000000000000000000000000000000000007bffffffffffffffffffffffffffffffffffffffffffffffffffffffff1916827bffffffffffffffffffffffffffffffffffffffffffffffffffffffff1916145b80611080575061107f8261195f565b5b9050919050565b60008073ffffffffffffffffffffffffffffffffffffffff166002600084815260200190815260200160002060009054906101000a900473ffffffffffffffffffffffffffffffffffffffff1673ffffffffffffffffffffffffffffffffffffffff1614159050919050565b600033905090565b816004600083815260200190815260200160002060006101000a81548173ffffffffffffffffffffffffffffffffffffffff021916908373ffffffffffffffffffffffffffffffffffffffff160217905550808273ffffffffffffffffffffffffffffffffffffffff1661116e836109b3565b73ffffffffffffffffffffffffffffffffffffffff167f8c5be1e5ebec7d5bd14f71427d1e84f3dd0314c0f7b2291e5b200ac8c7c3b92560405160405180910390a45050565b60006111bf82611087565b6111fe576040517f08c379a00000000000000000000000000000000000000000000000000000000081526004016111f5906129ee565b60405180910390fd5b6000611209836109b3565b90508073ffffffffffffffffffffffffffffffffffffffff168473ffffffffffffffffffffffffffffffffffffffff16148061127857508373ffffffffffffffffffffffffffffffffffffffff1661126084610635565b73ffffffffffffffffffffffffffffffffffffffff16145b8061128957506112888185610e19565b5b91505092915050565b8273ffffffffffffffffffffffffffffffffffffffff166112b2826109b3565b73ffffffffffffffffffffffffffffffffffffffff1614611308576040517f08c379a00000000000000000000000000000000000000000000000000000000081526004016112ff90612ace565b60405180910390fd5b600073ffffffffffffffffffffffffffffffffffffffff168273ffffffffffffffffffffffffffffffffffffffff161415611378576040517f08c379a000000000000000000000000000000000000000000000000000000000815260040161136f906129ae565b60405180910390fd5b6113838383836119c9565b61138e6000826110fb565b6001600360008573ffffffffffffffffffffffffffffffffffffffff1673ffffffffffffffffffffffffffffffffffffffff16815260200190815260200160002060008282546113de9190612ca9565b925050819055506001600360008473ffffffffffffffffffffffffffffffffffffffff1673ffffffffffffffffffffffffffffffffffffffff16815260200190815260200160002060008282546114359190612c22565b92505081905550816002600083815260200190815260200160002060006101000a81548173ffffffffffffffffffffffffffffffffffffffff021916908373ffffffffffffffffffffffffffffffffffffffff160217905550808273ffffffffffffffffffffffffffffffffffffffff168473ffffffffffffffffffffffffffffffffffffffff167fddf252ad1be2c89b69c2b068fc378daa952ba7f163c4a11628f55a4df523b3ef60405160405180910390a4505050565b6000600a60009054906101000a900473ffffffffffffffffffffffffffffffffffffffff16905081600a60006101000a81548173ffffffffffffffffffffffffffffffffffffffff021916908373ffffffffffffffffffffffffffffffffffffffff1602179055508173ffffffffffffffffffffffffffffffffffffffff168173ffffffffffffffffffffffffffffffffffffffff167f8be0079c531659141344cd1fd0a4f28419497f9722a3daafe3b4186f6b6457e060405160405180910390a35050565b6115ce828260405180602001604052806000815250611add565b5050565b8173ffffffffffffffffffffffffffffffffffffffff168373ffffffffffffffffffffffffffffffffffffffff161415611641576040517f08c379a0000000000000000000000000000000000000000000000000000000008152600401611638906129ce565b60405180910390fd5b80600560008573ffffffffffffffffffffffffffffffffffffffff1673ffffffffffffffffffffffffffffffffffffffff16815260200190815260200160002060008473ffffffffffffffffffffffffffffffffffffffff1673ffffffffffffffffffffffffffffffffffffffff16815260200190815260200160002060006101000a81548160ff0219169083151502179055508173ffffffffffffffffffffffffffffffffffffffff168373ffffffffffffffffffffffffffffffffffffffff167f17307eab39ab6107e8899845ad3d59bd9653f200f220920489ca2b5937696c318360405161173291906128f1565b60405180910390a3505050565b61174a848484611292565b61175684848484611b38565b611795576040517f08c379a000000000000000000000000000000000000000000000000000000000815260040161178c9061294e565b60405180910390fd5b50505050565b606060405180602001604052806000815250905090565b606060008214156117fa576040518060400160405280600181526020017f3000000000000000000000000000000000000000000000000000000000000000815250905061195a565b600082905060005b6000821461182c57808061181590612df6565b915050600a826118259190612c78565b9150611802565b60008167ffffffffffffffff81111561186e577f4e487b7100000000000000000000000000000000000000000000000000000000600052604160045260246000fd5b6040519080825280601f01601f1916602001820160405280156118a05781602001600182028036833780820191505090505b5090505b60008514611953576001826118b99190612ca9565b9150600a856118c89190612e3f565b60306118d49190612c22565b60f81b818381518110611910577f4e487b7100000000000000000000000000000000000000000000000000000000600052603260045260246000fd5b60200101907effffffffffffffffffffffffffffffffffffffffffffffffffffffffffffff1916908160001a905350600a8561194c9190612c78565b94506118a4565b8093505050505b919050565b60007f01ffc9a7000000000000000000000000000000000000000000000000000000007bffffffffffffffffffffffffffffffffffffffffffffffffffffffff1916827bffffffffffffffffffffffffffffffffffffffffffffffffffffffff1916149050919050565b6119d4838383611ccf565b600073ffffffffffffffffffffffffffffffffffffffff168373ffffffffffffffffffffffffffffffffffffffff161415611a1757611a1281611cd4565b611a56565b8173ffffffffffffffffffffffffffffffffffffffff168373ffffffffffffffffffffffffffffffffffffffff1614611a5557611a548382611d1d565b5b5b600073ffffffffffffffffffffffffffffffffffffffff168273ffffffffffffffffffffffffffffffffffffffff161415611a9957611a9481611e8a565b611ad8565b8273ffffffffffffffffffffffffffffffffffffffff168273ffffffffffffffffffffffffffffffffffffffff1614611ad757611ad68282611fcd565b5b5b505050565b611ae7838361204c565b611af46000848484611b38565b611b33576040517f08c379a0000000000000000000000000000000000000000000000000000000008152600401611b2a9061294e565b60405180910390fd5b505050565b6000611b598473ffffffffffffffffffffffffffffffffffffffff1661221a565b15611cc2578373ffffffffffffffffffffffffffffffffffffffff1663150b7a02611b826110f3565b8786866040518563ffffffff1660e01b8152600401611ba494939291906128a5565b602060405180830381600087803b158015611bbe57600080fd5b505af1925050508015611bef57506040513d601f19601f82011682018060405250810190611bec91906124ce565b60015b611c72573d8060008114611c1f576040519150601f19603f3d011682016040523d82523d6000602084013e611c24565b606091505b50600081511415611c6a576040517f08c379a0000000000000000000000000000000000000000000000000000000008152600401611c619061294e565b60405180910390fd5b805181602001fd5b63150b7a0260e01b7bffffffffffffffffffffffffffffffffffffffffffffffffffffffff1916817bffffffffffffffffffffffffffffffffffffffffffffffffffffffff191614915050611cc7565b600190505b949350505050565b505050565b6008805490506009600083815260200190815260200160002081905550600881908060018154018082558091505060019003906000526020600020016000909190919091505550565b60006001611d2a84610a65565b611d349190612ca9565b9050600060076000848152602001908152602001600020549050818114611e19576000600660008673ffffffffffffffffffffffffffffffffffffffff1673ffffffffffffffffffffffffffffffffffffffff168152602001908152602001600020600084815260200190815260200160002054905080600660008773ffffffffffffffffffffffffffffffffffffffff1673ffffffffffffffffffffffffffffffffffffffff168152602001908152602001600020600084815260200190815260200160002081905550816007600083815260200190815260200160002081905550505b6007600084815260200190815260200160002060009055600660008573ffffffffffffffffffffffffffffffffffffffff1673ffffffffffffffffffffffffffffffffffffffff16815260200190815260200160002060008381526020019081526020016000206000905550505050565b60006001600880549050611e9e9190612ca9565b9050600060096000848152602001908152602001600020549050600060088381548110611ef4577f4e487b7100000000000000000000000000000000000000000000000000000000600052603260045260246000fd5b906000526020600020015490508060088381548110611f3c577f4e487b7100000000000000000000000000000000000000000000000000000000600052603260045260246000fd5b906000526020600020018190555081600960008381526020019081526020016000208190555060096000858152602001908152602001600020600090556008805480611fb1577f4e487b7100000000000000000000000000000000000000000000000000000000600052603160045260246000fd5b6001900381819060005260206000200160009055905550505050565b6000611fd883610a65565b905081600660008573ffffffffffffffffffffffffffffffffffffffff1673ffffffffffffffffffffffffffffffffffffffff168152602001908152602001600020600083815260200190815260200160002081905550806007600084815260200190815260200160002081905550505050565b600073ffffffffffffffffffffffffffffffffffffffff168273ffffffffffffffffffffffffffffffffffffffff1614156120bc576040517f08c379a00000000000000000000000000000000000000000000000000000000081526004016120b390612a6e565b60405180910390fd5b6120c581611087565b15612105576040517f08c379a00000000000000000000000000000000000000000000000000000000081526004016120fc9061298e565b60405180910390fd5b612111600083836119c9565b6001600360008473ffffffffffffffffffffffffffffffffffffffff1673ffffffffffffffffffffffffffffffffffffffff16815260200190815260200160002060008282546121619190612c22565b92505081905550816002600083815260200190815260200160002060006101000a81548173ffffffffffffffffffffffffffffffffffffffff021916908373ffffffffffffffffffffffffffffffffffffffff160217905550808273ffffffffffffffffffffffffffffffffffffffff16600073ffffffffffffffffffffffffffffffffffffffff167fddf252ad1be2c89b69c2b068fc378daa952ba7f163c4a11628f55a4df523b3ef60405160405180910390a45050565b600080823b905060008111915050919050565b600061224061223b84612bae565b612b89565b90508281526020810184848401111561225857600080fd5b612263848285612d51565b509392505050565b60008135905061227a81613433565b92915050565b60008135905061228f8161344a565b92915050565b6000813590506122a481613461565b92915050565b6000815190506122b981613461565b92915050565b600082601f8301126122d057600080fd5b81356122e084826020860161222d565b91505092915050565b6000813590506122f881613478565b92915050565b60006020828403121561231057600080fd5b600061231e8482850161226b565b91505092915050565b6000806040838503121561233a57600080fd5b60006123488582860161226b565b92505060206123598582860161226b565b9150509250929050565b60008060006060848603121561237857600080fd5b60006123868682870161226b565b93505060206123978682870161226b565b92505060406123a8868287016122e9565b9150509250925092565b600080600080608085870312156123c857600080fd5b60006123d68782880161226b565b94505060206123e78782880161226b565b93505060406123f8878288016122e9565b925050606085013567ffffffffffffffff81111561241557600080fd5b612421878288016122bf565b91505092959194509250565b6000806040838503121561244057600080fd5b600061244e8582860161226b565b925050602061245f85828601612280565b9150509250929050565b6000806040838503121561247c57600080fd5b600061248a8582860161226b565b925050602061249b858286016122e9565b9150509250929050565b6000602082840312156124b757600080fd5b60006124c584828501612295565b91505092915050565b6000602082840312156124e057600080fd5b60006124ee848285016122aa565b91505092915050565b60006020828403121561250957600080fd5b6000612517848285016122e9565b91505092915050565b61252981612cdd565b82525050565b61253881612cef565b82525050565b600061254982612bdf565b6125538185612bf5565b9350612563818560208601612d60565b61256c81612f2c565b840191505092915050565b600061258282612bea565b61258c8185612c06565b935061259c818560208601612d60565b6125a581612f2c565b840191505092915050565b60006125bb82612bea565b6125c58185612c17565b93506125d5818560208601612d60565b80840191505092915050565b60006125ee602b83612c06565b91506125f982612f3d565b604082019050919050565b6000612611603283612c06565b915061261c82612f8c565b604082019050919050565b6000612634602683612c06565b915061263f82612fdb565b604082019050919050565b6000612657601c83612c06565b91506126628261302a565b602082019050919050565b600061267a602483612c06565b915061268582613053565b604082019050919050565b600061269d601983612c06565b91506126a8826130a2565b602082019050919050565b60006126c0602c83612c06565b91506126cb826130cb565b604082019050919050565b60006126e3603883612c06565b91506126ee8261311a565b604082019050919050565b6000612706602a83612c06565b915061271182613169565b604082019050919050565b6000612729602983612c06565b9150612734826131b8565b604082019050919050565b600061274c602083612c06565b915061275782613207565b602082019050919050565b600061276f602c83612c06565b915061277a82613230565b604082019050919050565b6000612792602083612c06565b915061279d8261327f565b602082019050919050565b60006127b5602983612c06565b91506127c0826132a8565b604082019050919050565b60006127d8602f83612c06565b91506127e3826132f7565b604082019050919050565b60006127fb602183612c06565b915061280682613346565b604082019050919050565b600061281e603183612c06565b915061282982613395565b604082019050919050565b6000612841602c83612c06565b915061284c826133e4565b604082019050919050565b61286081612d47565b82525050565b600061287282856125b0565b915061287e82846125b0565b91508190509392505050565b600060208201905061289f6000830184612520565b92915050565b60006080820190506128ba6000830187612520565b6128c76020830186612520565b6128d46040830185612857565b81810360608301526128e6818461253e565b905095945050505050565b6000602082019050612906600083018461252f565b92915050565b600060208201905081810360008301526129268184612577565b905092915050565b60006020820190508181036000830152612947816125e1565b9050919050565b6000602082019050818103600083015261296781612604565b9050919050565b6000602082019050818103600083015261298781612627565b9050919050565b600060208201905081810360008301526129a78161264a565b9050919050565b600060208201905081810360008301526129c78161266d565b9050919050565b600060208201905081810360008301526129e781612690565b9050919050565b60006020820190508181036000830152612a07816126b3565b9050919050565b60006020820190508181036000830152612a27816126d6565b9050919050565b60006020820190508181036000830152612a47816126f9565b9050919050565b60006020820190508181036000830152612a678161271c565b9050919050565b60006020820190508181036000830152612a878161273f565b9050919050565b60006020820190508181036000830152612aa781612762565b9050919050565b60006020820190508181036000830152612ac781612785565b9050919050565b60006020820190508181036000830152612ae7816127a8565b9050919050565b60006020820190508181036000830152612b07816127cb565b9050919050565b60006020820190508181036000830152612b27816127ee565b9050919050565b60006020820190508181036000830152612b4781612811565b9050919050565b60006020820190508181036000830152612b6781612834565b9050919050565b6000602082019050612b836000830184612857565b92915050565b6000612b93612ba4565b9050612b9f8282612dc5565b919050565b6000604051905090565b600067ffffffffffffffff821115612bc957612bc8612efd565b5b612bd282612f2c565b9050602081019050919050565b600081519050919050565b600081519050919050565b600082825260208201905092915050565b600082825260208201905092915050565b600081905092915050565b6000612c2d82612d47565b9150612c3883612d47565b9250827fffffffffffffffffffffffffffffffffffffffffffffffffffffffffffffffff03821115612c6d57612c6c612e70565b5b828201905092915050565b6000612c8382612d47565b9150612c8e83612d47565b925082612c9e57612c9d612e9f565b5b828204905092915050565b6000612cb482612d47565b9150612cbf83612d47565b925082821015612cd257612cd1612e70565b5b828203905092915050565b6000612ce882612d27565b9050919050565b60008115159050919050565b60007fffffffff0000000000000000000000000000000000000000000000000000000082169050919050565b600073ffffffffffffffffffffffffffffffffffffffff82169050919050565b6000819050919050565b82818337600083830152505050565b60005b83811015612d7e578082015181840152602081019050612d63565b83811115612d8d576000848401525b50505050565b60006002820490506001821680612dab57607f821691505b60208210811415612dbf57612dbe612ece565b5b50919050565b612dce82612f2c565b810181811067ffffffffffffffff82111715612ded57612dec612efd565b5b80604052505050565b6000612e0182612d47565b91507fffffffffffffffffffffffffffffffffffffffffffffffffffffffffffffffff821415612e3457612e33612e70565b5b600182019050919050565b6000612e4a82612d47565b9150612e5583612d47565b925082612e6557612e64612e9f565b5b828206905092915050565b7f4e487b7100000000000000000000000000000000000000000000000000000000600052601160045260246000fd5b7f4e487b7100000000000000000000000000000000000000000000000000000000600052601260045260246000fd5b7f4e487b7100000000000000000000000000000000000000000000000000000000600052602260045260246000fd5b7f4e487b7100000000000000000000000000000000000000000000000000000000600052604160045260246000fd5b6000601f19601f8301169050919050565b7f455243373231456e756d657261626c653a206f776e657220696e646578206f7560008201527f74206f6620626f756e6473000000000000000000000000000000000000000000602082015250565b7f4552433732313a207472616e7366657220746f206e6f6e20455243373231526560008201527f63656976657220696d706c656d656e7465720000000000000000000000000000602082015250565b7f4f776e61626c653a206e6577206f776e657220697320746865207a65726f206160008201527f6464726573730000000000000000000000000000000000000000000000000000602082015250565b7f4552433732313a20746f6b656e20616c7265616479206d696e74656400000000600082015250565b7f4552433732313a207472616e7366657220746f20746865207a65726f2061646460008201527f7265737300000000000000000000000000000000000000000000000000000000602082015250565b7f4552433732313a20617070726f766520746f2063616c6c657200000000000000600082015250565b7f4552433732313a206f70657261746f7220717565727920666f72206e6f6e657860008201527f697374656e7420746f6b656e0000000000000000000000000000000000000000602082015250565b7f4552433732313a20617070726f76652063616c6c6572206973206e6f74206f7760008201527f6e6572206e6f7220617070726f76656420666f7220616c6c0000000000000000602082015250565b7f4552433732313a2062616c616e636520717565727920666f7220746865207a6560008201527f726f206164647265737300000000000000000000000000000000000000000000602082015250565b7f4552433732313a206f776e657220717565727920666f72206e6f6e657869737460008201527f656e7420746f6b656e0000000000000000000000000000000000000000000000602082015250565b7f4552433732313a206d696e7420746f20746865207a65726f2061646472657373600082015250565b7f4552433732313a20617070726f76656420717565727920666f72206e6f6e657860008201527f697374656e7420746f6b656e0000000000000000000000000000000000000000602082015250565b7f4f776e61626c653a2063616c6c6572206973206e6f7420746865206f776e6572600082015250565b7f4552433732313a207472616e73666572206f6620746f6b656e2074686174206960008201527f73206e6f74206f776e0000000000000000000000000000000000000000000000602082015250565b7f4552433732314d657461646174613a2055524920717565727920666f72206e6f60008201527f6e6578697374656e7420746f6b656e0000000000000000000000000000000000602082015250565b7f4552433732313a20617070726f76616c20746f2063757272656e74206f776e6560008201527f7200000000000000000000000000000000000000000000000000000000000000602082015250565b7f4552433732313a207472616e736665722063616c6c6572206973206e6f74206f60008201527f776e6572206e6f7220617070726f766564000000000000000000000000000000602082015250565b7f455243373231456e756d657261626c653a20676c6f62616c20696e646578206f60008201527f7574206f6620626f756e64730000000000000000000000000000000000000000602082015250565b61343c81612cdd565b811461344757600080fd5b50565b61345381612cef565b811461345e57600080fd5b50565b61346a81612cfb565b811461347557600080fd5b50565b61348181612d47565b811461348c57600080fd5b5056fea264697066735822122000c0c3837e151fe24c2a23f95a04645deb66e195f1ad82115ad25a71f8c4c71564736f6c63430008040033",
    "linkReferences": {},
    "deployedLinkReferences": {}
}